:100000000C9434000C943E000C943E000C943E0082
:100010000C943E000C943E000C943E000C943E0068
:100020000C943E000C943E000C943E000C943E0058
:100030000C943E000C943E000C943E000C943E0048
:100040000C943E000C943E000C943E000C943E0038
:100050000C943E000C943E000C943E000C943E0028
:100060000C943E000C943E0011241FBECFEFD8E04C
:10007000DEBFCDBF0E944E000C9469000C940000BE
:1000800020E030E007C0A89BFECF85B3816085BB30
:100090002F5F3F4F2D333105B4F3089516BC84B55F
:1000A0008E7F84BD84B58D7F84BD85B5856085BD1B
:1000B00085B58D7F85BD84B1806284B985B180624C
:1000C00085B90E94400085B18F7D85B90E944000AE
:0600D000F5CFF894FFCF0C
:00000001FF
