S018000050756C6C207570207265736973746F722E73726563CF
S11300000C9434000C943E000C943E000C943E007E
S11300100C943E000C943E000C943E000C943E0064
S11300200C943E000C943E000C943E000C943E0054
S11300300C943E000C943E000C943E000C943E0044
S11300400C943E000C943E000C943E000C943E0034
S11300500C943E000C943E000C943E000C943E0024
S11300600C943E000C943E0011241FBECFEFD8E048
S1130070DEBFCDBF0E9440000C9450000C940000E1
S11300808AB18F7E8AB984B1806284B94C9B04C0E2
S113009085B18F7D85B9FACF85B1806285B9F6CFF8
S10700A0F894FFCFFE
S9030000FC
