S01D0000466173745F4E6F6E696E76657274696E672050574D2E7372656305
S11300000C9434000C943E000C943E000C943E007E
S11300100C943E000C943E000C943E000C943E0064
S11300200C943E000C943E000C943E000C943E0054
S11300300C943E000C943E000C943E000C943E0044
S11300400C943E000C943E000C943E000C943E0034
S11300500C943E000C943E000C943E000C943E0024
S11300600C943E000C943E0011241FBECFEFD8E048
S1130070DEBFCDBF0E9440000C9455000C940000DC
S11300808AB180648AB984B5836084BD84B580688C
S113009084BD84B58F7B84BD85B5836085BD85B5FE
S11100A08B7F85BD86E687BDFFCFF894FFCF2A
S9030000FC
