:100000000C9434000C9446000C9448000C94460068
:100010000C9446000C9446000C9446000C94460048
:100020000C9446000C9446000C9446000C94460038
:100030000C9446000C9446000C9446000C94460028
:100040000C9446000C9446000C9446000C94460018
:100050000C9446000C9446000C9446000C94460008
:100060000C9446000C94460011241FBECFEFD8E03C
:10007000DEBFCDBF21E0A0E0B1E001C01D92A13004
:10008000B207E1F70E9457000C949D000C94000009
:100090001F920F920FB60F9211248F9381E08093DD
:1000A00000018F910F900FBE0F901F90189584B193
:1000B000806284B984B1806184B98AB1877F8AB94A
:1000C0008BB188608BB98DB382608DBBE9E6F0E0BF
:1000D00080818260808380818E7F8083789485B1E7
:1000E000806285B92FEF83ED90E3215080409040EE
:1000F000E1F700C0000085B18F7D85B92FEF83ED5A
:1001000090E3215080409040E1F700C000008091D2
:100110000001813021F785B1806185B92FEF83E23D
:1001200094EF215080409040E1F700C0000085B17D
:0E0130008F7E85B910920001D2CFF894FFCFD8
:00000001FF
